{
    "_format": "hh-sol-artifact-1",
    "contractName": "Buymecofee",
    "sourceName": "contracts/Buymecofee.sol",
    "abi": [
        {
            "inputs": [],
            "stateMutability": "payable",
            "type": "constructor"
        },
        {
            "anonymous": false,
            "inputs": [
                {
                    "indexed": true,
                    "internalType": "address",
                    "name": "from",
                    "type": "address"
                },
                {
                    "indexed": false,
                    "internalType": "uint256",
                    "name": "id",
                    "type": "uint256"
                },
                {
                    "indexed": false,
                    "internalType": "string",
                    "name": "name",
                    "type": "string"
                },
                {
                    "indexed": false,
                    "internalType": "string",
                    "name": "message",
                    "type": "string"
                },
                {
                    "indexed": false,
                    "internalType": "uint256",
                    "name": "timestamp",
                    "type": "uint256"
                }
            ],
            "name": "NewMemo",
            "type": "event"
        },
        {
            "inputs": [
                {
                    "internalType": "string",
                    "name": "_name",
                    "type": "string"
                },
                {
                    "internalType": "string",
                    "name": "_message",
                    "type": "string"
                }
            ],
            "name": "buyme",
            "outputs": [],
            "stateMutability": "payable",
            "type": "function"
        },
        {
            "inputs": [],
            "name": "getMemos",
            "outputs": [
                {
                    "components": [
                        {
                            "internalType": "address",
                            "name": "from",
                            "type": "address"
                        },
                        {
                            "internalType": "uint256",
                            "name": "id",
                            "type": "uint256"
                        },
                        {
                            "internalType": "string",
                            "name": "name",
                            "type": "string"
                        },
                        {
                            "internalType": "string",
                            "name": "message",
                            "type": "string"
                        },
                        {
                            "internalType": "uint256",
                            "name": "timestamp",
                            "type": "uint256"
                        }
                    ],
                    "internalType": "struct Buymecofee.Memo[]",
                    "name": "",
                    "type": "tuple[]"
                }
            ],
            "stateMutability": "view",
            "type": "function"
        },
        {
            "inputs": [
                {
                    "internalType": "uint256",
                    "name": "",
                    "type": "uint256"
                }
            ],
            "name": "memos",
            "outputs": [
                {
                    "internalType": "address",
                    "name": "from",
                    "type": "address"
                },
                {
                    "internalType": "uint256",
                    "name": "id",
                    "type": "uint256"
                },
                {
                    "internalType": "string",
                    "name": "name",
                    "type": "string"
                },
                {
                    "internalType": "string",
                    "name": "message",
                    "type": "string"
                },
                {
                    "internalType": "uint256",
                    "name": "timestamp",
                    "type": "uint256"
                }
            ],
            "stateMutability": "view",
            "type": "function"
        },
        {
            "inputs": [],
            "name": "withdraw",
            "outputs": [],
            "stateMutability": "nonpayable",
            "type": "function"
        }
    ],
    "bytecode": "0x6080604052336000806101000a81548173ffffffffffffffffffffffffffffffffffffffff021916908373ffffffffffffffffffffffffffffffffffffffff160217905550610ff6806100536000396000f3fe60806040526004361061003f5760003560e01c806311412f5b146100445780633ccfd60b14610060578063865c517214610077578063e8dfdf04146100a2575b600080fd5b61005e600480360381019061005991906107ef565b6100e3565b005b34801561006c57600080fd5b50610075610244565b005b34801561008357600080fd5b5061008c610332565b6040516100999190610a7f565b60405180910390f35b3480156100ae57600080fd5b506100c960048036038101906100c49190610acd565b61051f565b6040516100da959493929190610b62565b60405180910390f35b60016040518060a001604052803373ffffffffffffffffffffffffffffffffffffffff1681526020016064426101199190610bf2565b815260200184815260200183815260200142815250908060018154018082558091505060019003906000526020600020906005020160009091909190915060008201518160000160006101000a81548173ffffffffffffffffffffffffffffffffffffffff021916908373ffffffffffffffffffffffffffffffffffffffff1602179055506020820151816001015560408201518160020190816101bd9190610e2f565b5060608201518160030190816101d39190610e2f565b506080820151816004015550503373ffffffffffffffffffffffffffffffffffffffff167fe6609e3b36bf3d0e12aa4c5b518055c81016d4f091e4fa2be01ff5f2690512bb6064426102259190610bf2565b8484426040516102389493929190610f01565b60405180910390a25050565b60008054906101000a900473ffffffffffffffffffffffffffffffffffffffff1673ffffffffffffffffffffffffffffffffffffffff163373ffffffffffffffffffffffffffffffffffffffff16146102d2576040517f08c379a00000000000000000000000000000000000000000000000000000000081526004016102c990610fa0565b60405180910390fd5b60008054906101000a900473ffffffffffffffffffffffffffffffffffffffff1673ffffffffffffffffffffffffffffffffffffffff166108fc479081150290604051600060405180830381858888f1935050505061033057600080fd5b565b60606001805480602002602001604051908101604052809291908181526020016000905b8282101561051657838290600052602060002090600502016040518060a00160405290816000820160009054906101000a900473ffffffffffffffffffffffffffffffffffffffff1673ffffffffffffffffffffffffffffffffffffffff1673ffffffffffffffffffffffffffffffffffffffff168152602001600182015481526020016002820180546103e990610c52565b80601f016020809104026020016040519081016040528092919081815260200182805461041590610c52565b80156104625780601f1061043757610100808354040283529160200191610462565b820191906000526020600020905b81548152906001019060200180831161044557829003601f168201915b5050505050815260200160038201805461047b90610c52565b80601f01602080910402602001604051908101604052809291908181526020018280546104a790610c52565b80156104f45780601f106104c9576101008083540402835291602001916104f4565b820191906000526020600020905b8154815290600101906020018083116104d757829003601f168201915b5050505050815260200160048201548152505081526020019060010190610356565b50505050905090565b6001818154811061052f57600080fd5b90600052602060002090600502016000915090508060000160009054906101000a900473ffffffffffffffffffffffffffffffffffffffff169080600101549080600201805461057e90610c52565b80601f01602080910402602001604051908101604052809291908181526020018280546105aa90610c52565b80156105f75780601f106105cc576101008083540402835291602001916105f7565b820191906000526020600020905b8154815290600101906020018083116105da57829003601f168201915b50505050509080600301805461060c90610c52565b80601f016020809104026020016040519081016040528092919081815260200182805461063890610c52565b80156106855780601f1061065a57610100808354040283529160200191610685565b820191906000526020600020905b81548152906001019060200180831161066857829003601f168201915b5050505050908060040154905085565b6000604051905090565b600080fd5b600080fd5b600080fd5b600080fd5b6000601f19601f8301169050919050565b7f4e487b7100000000000000000000000000000000000000000000000000000000600052604160045260246000fd5b6106fc826106b3565b810181811067ffffffffffffffff8211171561071b5761071a6106c4565b5b80604052505050565b600061072e610695565b905061073a82826106f3565b919050565b600067ffffffffffffffff82111561075a576107596106c4565b5b610763826106b3565b9050602081019050919050565b82818337600083830152505050565b600061079261078d8461073f565b610724565b9050828152602081018484840111156107ae576107ad6106ae565b5b6107b9848285610770565b509392505050565b600082601f8301126107d6576107d56106a9565b5b81356107e684826020860161077f565b91505092915050565b600080604083850312156108065761080561069f565b5b600083013567ffffffffffffffff811115610824576108236106a4565b5b610830858286016107c1565b925050602083013567ffffffffffffffff811115610851576108506106a4565b5b61085d858286016107c1565b9150509250929050565b600081519050919050565b600082825260208201905092915050565b6000819050602082019050919050565b600073ffffffffffffffffffffffffffffffffffffffff82169050919050565b60006108be82610893565b9050919050565b6108ce816108b3565b82525050565b6000819050919050565b6108e7816108d4565b82525050565b600081519050919050565b600082825260208201905092915050565b60005b8381101561092757808201518184015260208101905061090c565b60008484015250505050565b600061093e826108ed565b61094881856108f8565b9350610958818560208601610909565b610961816106b3565b840191505092915050565b600060a08301600083015161098460008601826108c5565b50602083015161099760208601826108de565b50604083015184820360408601526109af8282610933565b915050606083015184820360608601526109c98282610933565b91505060808301516109de60808601826108de565b508091505092915050565b60006109f5838361096c565b905092915050565b6000602082019050919050565b6000610a1582610867565b610a1f8185610872565b935083602082028501610a3185610883565b8060005b85811015610a6d5784840389528151610a4e85826109e9565b9450610a59836109fd565b925060208a01995050600181019050610a35565b50829750879550505050505092915050565b60006020820190508181036000830152610a998184610a0a565b905092915050565b610aaa816108d4565b8114610ab557600080fd5b50565b600081359050610ac781610aa1565b92915050565b600060208284031215610ae357610ae261069f565b5b6000610af184828501610ab8565b91505092915050565b610b03816108b3565b82525050565b610b12816108d4565b82525050565b600082825260208201905092915050565b6000610b34826108ed565b610b3e8185610b18565b9350610b4e818560208601610909565b610b57816106b3565b840191505092915050565b600060a082019050610b776000830188610afa565b610b846020830187610b09565b8181036040830152610b968186610b29565b90508181036060830152610baa8185610b29565b9050610bb96080830184610b09565b9695505050505050565b7f4e487b7100000000000000000000000000000000000000000000000000000000600052601260045260246000fd5b6000610bfd826108d4565b9150610c08836108d4565b925082610c1857610c17610bc3565b5b828206905092915050565b7f4e487b7100000000000000000000000000000000000000000000000000000000600052602260045260246000fd5b60006002820490506001821680610c6a57607f821691505b602082108103610c7d57610c7c610c23565b5b50919050565b60008190508160005260206000209050919050565b60006020601f8301049050919050565b600082821b905092915050565b600060088302610ce57fffffffffffffffffffffffffffffffffffffffffffffffffffffffffffffffff82610ca8565b610cef8683610ca8565b95508019841693508086168417925050509392505050565b6000819050919050565b6000610d2c610d27610d22846108d4565b610d07565b6108d4565b9050919050565b6000819050919050565b610d4683610d11565b610d5a610d5282610d33565b848454610cb5565b825550505050565b600090565b610d6f610d62565b610d7a818484610d3d565b505050565b5b81811015610d9e57610d93600082610d67565b600181019050610d80565b5050565b601f821115610de357610db481610c83565b610dbd84610c98565b81016020851015610dcc578190505b610de0610dd885610c98565b830182610d7f565b50505b505050565b600082821c905092915050565b6000610e0660001984600802610de8565b1980831691505092915050565b6000610e1f8383610df5565b9150826002028217905092915050565b610e38826108ed565b67ffffffffffffffff811115610e5157610e506106c4565b5b610e5b8254610c52565b610e66828285610da2565b600060209050601f831160018114610e995760008415610e87578287015190505b610e918582610e13565b865550610ef9565b601f198416610ea786610c83565b60005b82811015610ecf57848901518255600182019150602085019450602081019050610eaa565b86831015610eec5784890151610ee8601f891682610df5565b8355505b6001600288020188555050505b505050505050565b6000608082019050610f166000830187610b09565b8181036020830152610f288186610b29565b90508181036040830152610f3c8185610b29565b9050610f4b6060830184610b09565b95945050505050565b7f4e6f7420746865206f776e657200000000000000000000000000000000000000600082015250565b6000610f8a600d83610b18565b9150610f9582610f54565b602082019050919050565b60006020820190508181036000830152610fb981610f7d565b905091905056fea2646970667358221220f6a963e114bf8ed9a5684ed82b2e520605fe082b8e7d79c4353fe6c2e021a0ef64736f6c63430008120033",
    "linkReferences": {},
    "deployedLinkReferences": {}
}